{
  "contractName": "MusicOwnership",
  "abi": [
    {
      "inputs": [
        {
          "internalType": "string",
          "name": "_name",
          "type": "string"
        },
        {
          "internalType": "string",
          "name": "_symbol",
          "type": "string"
        }
      ],
      "stateMutability": "nonpayable",
      "type": "constructor"
    },
    {
      "anonymous": false,
      "inputs": [
        {
          "indexed": true,
          "internalType": "address",
          "name": "owner",
          "type": "address"
        },
        {
          "indexed": true,
          "internalType": "address",
          "name": "approved",
          "type": "address"
        },
        {
          "indexed": true,
          "internalType": "uint256",
          "name": "tokenId",
          "type": "uint256"
        }
      ],
      "name": "Approval",
      "type": "event"
    },
    {
      "anonymous": false,
      "inputs": [
        {
          "indexed": true,
          "internalType": "address",
          "name": "owner",
          "type": "address"
        },
        {
          "indexed": true,
          "internalType": "address",
          "name": "operator",
          "type": "address"
        },
        {
          "indexed": false,
          "internalType": "bool",
          "name": "approved",
          "type": "bool"
        }
      ],
      "name": "ApprovalForAll",
      "type": "event"
    },
    {
      "anonymous": false,
      "inputs": [
        {
          "indexed": true,
          "internalType": "address",
          "name": "previousOwner",
          "type": "address"
        },
        {
          "indexed": true,
          "internalType": "address",
          "name": "newOwner",
          "type": "address"
        }
      ],
      "name": "OwnershipTransferred",
      "type": "event"
    },
    {
      "anonymous": false,
      "inputs": [
        {
          "indexed": true,
          "internalType": "address",
          "name": "from",
          "type": "address"
        },
        {
          "indexed": true,
          "internalType": "address",
          "name": "to",
          "type": "address"
        },
        {
          "indexed": true,
          "internalType": "uint256",
          "name": "tokenId",
          "type": "uint256"
        }
      ],
      "name": "Transfer",
      "type": "event"
    },
    {
      "inputs": [
        {
          "internalType": "address",
          "name": "to",
          "type": "address"
        },
        {
          "internalType": "uint256",
          "name": "tokenId",
          "type": "uint256"
        }
      ],
      "name": "approve",
      "outputs": [],
      "stateMutability": "nonpayable",
      "type": "function"
    },
    {
      "inputs": [
        {
          "internalType": "address",
          "name": "owner",
          "type": "address"
        }
      ],
      "name": "balanceOf",
      "outputs": [
        {
          "internalType": "uint256",
          "name": "",
          "type": "uint256"
        }
      ],
      "stateMutability": "view",
      "type": "function"
    },
    {
      "inputs": [
        {
          "internalType": "uint256",
          "name": "tokenId",
          "type": "uint256"
        }
      ],
      "name": "getApproved",
      "outputs": [
        {
          "internalType": "address",
          "name": "",
          "type": "address"
        }
      ],
      "stateMutability": "view",
      "type": "function"
    },
    {
      "inputs": [
        {
          "internalType": "address",
          "name": "owner",
          "type": "address"
        },
        {
          "internalType": "address",
          "name": "operator",
          "type": "address"
        }
      ],
      "name": "isApprovedForAll",
      "outputs": [
        {
          "internalType": "bool",
          "name": "",
          "type": "bool"
        }
      ],
      "stateMutability": "view",
      "type": "function"
    },
    {
      "inputs": [],
      "name": "name",
      "outputs": [
        {
          "internalType": "string",
          "name": "",
          "type": "string"
        }
      ],
      "stateMutability": "view",
      "type": "function"
    },
    {
      "inputs": [],
      "name": "owner",
      "outputs": [
        {
          "internalType": "address",
          "name": "",
          "type": "address"
        }
      ],
      "stateMutability": "view",
      "type": "function"
    },
    {
      "inputs": [
        {
          "internalType": "uint256",
          "name": "tokenId",
          "type": "uint256"
        }
      ],
      "name": "ownerOf",
      "outputs": [
        {
          "internalType": "address",
          "name": "",
          "type": "address"
        }
      ],
      "stateMutability": "view",
      "type": "function"
    },
    {
      "inputs": [],
      "name": "renounceOwnership",
      "outputs": [],
      "stateMutability": "nonpayable",
      "type": "function"
    },
    {
      "inputs": [
        {
          "internalType": "address",
          "name": "from",
          "type": "address"
        },
        {
          "internalType": "address",
          "name": "to",
          "type": "address"
        },
        {
          "internalType": "uint256",
          "name": "tokenId",
          "type": "uint256"
        }
      ],
      "name": "safeTransferFrom",
      "outputs": [],
      "stateMutability": "nonpayable",
      "type": "function"
    },
    {
      "inputs": [
        {
          "internalType": "address",
          "name": "from",
          "type": "address"
        },
        {
          "internalType": "address",
          "name": "to",
          "type": "address"
        },
        {
          "internalType": "uint256",
          "name": "tokenId",
          "type": "uint256"
        },
        {
          "internalType": "bytes",
          "name": "_data",
          "type": "bytes"
        }
      ],
      "name": "safeTransferFrom",
      "outputs": [],
      "stateMutability": "nonpayable",
      "type": "function"
    },
    {
      "inputs": [
        {
          "internalType": "address",
          "name": "operator",
          "type": "address"
        },
        {
          "internalType": "bool",
          "name": "approved",
          "type": "bool"
        }
      ],
      "name": "setApprovalForAll",
      "outputs": [],
      "stateMutability": "nonpayable",
      "type": "function"
    },
    {
      "inputs": [
        {
          "internalType": "bytes4",
          "name": "interfaceId",
          "type": "bytes4"
        }
      ],
      "name": "supportsInterface",
      "outputs": [
        {
          "internalType": "bool",
          "name": "",
          "type": "bool"
        }
      ],
      "stateMutability": "view",
      "type": "function"
    },
    {
      "inputs": [],
      "name": "symbol",
      "outputs": [
        {
          "internalType": "string",
          "name": "",
          "type": "string"
        }
      ],
      "stateMutability": "view",
      "type": "function"
    },
    {
      "inputs": [
        {
          "internalType": "address",
          "name": "from",
          "type": "address"
        },
        {
          "internalType": "address",
          "name": "to",
          "type": "address"
        },
        {
          "internalType": "uint256",
          "name": "tokenId",
          "type": "uint256"
        }
      ],
      "name": "transferFrom",
      "outputs": [],
      "stateMutability": "nonpayable",
      "type": "function"
    },
    {
      "inputs": [
        {
          "internalType": "address",
          "name": "newOwner",
          "type": "address"
        }
      ],
      "name": "transferOwnership",
      "outputs": [],
      "stateMutability": "nonpayable",
      "type": "function"
    },
    {
      "inputs": [
        {
          "internalType": "address",
          "name": "reciever",
          "type": "address"
        },
        {
          "internalType": "string",
          "name": "tokenURI_",
          "type": "string"
        },
        {
          "internalType": "uint256",
          "name": "tokenId",
          "type": "uint256"
        }
      ],
      "name": "mint",
      "outputs": [],
      "stateMutability": "nonpayable",
      "type": "function"
    },
    {
      "inputs": [
        {
          "internalType": "uint256",
          "name": "tokenId",
          "type": "uint256"
        }
      ],
      "name": "tokenURI",
      "outputs": [
        {
          "internalType": "string",
          "name": "",
          "type": "string"
        }
      ],
      "stateMutability": "view",
      "type": "function"
    },
    {
      "inputs": [
        {
          "internalType": "address",
          "name": "reciever",
          "type": "address"
        },
        {
          "internalType": "address",
          "name": "sender",
          "type": "address"
        },
        {
          "internalType": "uint256",
          "name": "tokenId",
          "type": "uint256"
        }
      ],
      "name": "transfer",
      "outputs": [],
      "stateMutability": "nonpayable",
      "type": "function"
    }
  ],
  "bytecode": "0x60806040523480156200001157600080fd5b5060405162003491380380620034918339818101604052810190620000379190620003b0565b818181600090805190602001906200005192919062000163565b5080600190805190602001906200006a92919062000163565b5050506200008d620000816200009560201b60201c565b6200009d60201b60201c565b50506200049a565b600033905090565b6000600660009054906101000a900473ffffffffffffffffffffffffffffffffffffffff16905081600660006101000a81548173ffffffffffffffffffffffffffffffffffffffff021916908373ffffffffffffffffffffffffffffffffffffffff1602179055508173ffffffffffffffffffffffffffffffffffffffff168173ffffffffffffffffffffffffffffffffffffffff167f8be0079c531659141344cd1fd0a4f28419497f9722a3daafe3b4186f6b6457e060405160405180910390a35050565b828054620001719062000464565b90600052602060002090601f016020900481019282620001955760008555620001e1565b82601f10620001b057805160ff1916838001178555620001e1565b82800160010185558215620001e1579182015b82811115620001e0578251825591602001919060010190620001c3565b5b509050620001f09190620001f4565b5090565b5b808211156200020f576000816000905550600101620001f5565b5090565b6000604051905090565b600080fd5b600080fd5b600080fd5b600080fd5b6000601f19601f8301169050919050565b7f4e487b7100000000000000000000000000000000000000000000000000000000600052604160045260246000fd5b6200027c8262000231565b810181811067ffffffffffffffff821117156200029e576200029d62000242565b5b80604052505050565b6000620002b362000213565b9050620002c1828262000271565b919050565b600067ffffffffffffffff821115620002e457620002e362000242565b5b620002ef8262000231565b9050602081019050919050565b60005b838110156200031c578082015181840152602081019050620002ff565b838111156200032c576000848401525b50505050565b6000620003496200034384620002c6565b620002a7565b9050828152602081018484840111156200036857620003676200022c565b5b62000375848285620002fc565b509392505050565b600082601f83011262000395576200039462000227565b5b8151620003a784826020860162000332565b91505092915050565b60008060408385031215620003ca57620003c96200021d565b5b600083015167ffffffffffffffff811115620003eb57620003ea62000222565b5b620003f9858286016200037d565b925050602083015167ffffffffffffffff8111156200041d576200041c62000222565b5b6200042b858286016200037d565b9150509250929050565b7f4e487b7100000000000000000000000000000000000000000000000000000000600052602260045260246000fd5b600060028204905060018216806200047d57607f821691505b6020821081141562000494576200049362000435565b5b50919050565b612fe780620004aa6000396000f3fe608060405234801561001057600080fd5b50600436106101165760003560e01c80638da5cb5b116100a2578063ba7aef4311610071578063ba7aef43146102cb578063beabacc8146102e7578063c87b56dd14610303578063e985e9c514610333578063f2fde38b1461036357610116565b80638da5cb5b1461025757806395d89b4114610275578063a22cb46514610293578063b88d4fde146102af57610116565b806323b872dd116100e957806323b872dd146101b557806342842e0e146101d15780636352211e146101ed57806370a082311461021d578063715018a61461024d57610116565b806301ffc9a71461011b57806306fdde031461014b578063081812fc14610169578063095ea7b314610199575b600080fd5b61013560048036038101906101309190611bf2565b61037f565b6040516101429190611c3a565b60405180910390f35b610153610461565b6040516101609190611cee565b60405180910390f35b610183600480360381019061017e9190611d46565b6104f3565b6040516101909190611db4565b60405180910390f35b6101b360048036038101906101ae9190611dfb565b610578565b005b6101cf60048036038101906101ca9190611e3b565b610690565b005b6101eb60048036038101906101e69190611e3b565b6106f0565b005b61020760048036038101906102029190611d46565b610710565b6040516102149190611db4565b60405180910390f35b61023760048036038101906102329190611e8e565b6107c2565b6040516102449190611eca565b60405180910390f35b61025561087a565b005b61025f610902565b60405161026c9190611db4565b60405180910390f35b61027d61092c565b60405161028a9190611cee565b60405180910390f35b6102ad60048036038101906102a89190611f11565b6109be565b005b6102c960048036038101906102c49190612086565b610b3f565b005b6102e560048036038101906102e091906121aa565b610ba1565b005b61030160048036038101906102fc9190611e3b565b610c0f565b005b61031d60048036038101906103189190611d46565b610c71565b60405161032a9190611cee565b60405180910390f35b61034d60048036038101906103489190612219565b610e12565b60405161035a9190611c3a565b60405180910390f35b61037d60048036038101906103789190611e8e565b610ea6565b005b60007f80ac58cd000000000000000000000000000000000000000000000000000000007bffffffffffffffffffffffffffffffffffffffffffffffffffffffff1916827bffffffffffffffffffffffffffffffffffffffffffffffffffffffff1916148061044a57507f5b5e139f000000000000000000000000000000000000000000000000000000007bffffffffffffffffffffffffffffffffffffffffffffffffffffffff1916827bffffffffffffffffffffffffffffffffffffffffffffffffffffffff1916145b8061045a575061045982610f9e565b5b9050919050565b60606000805461047090612288565b80601f016020809104026020016040519081016040528092919081815260200182805461049c90612288565b80156104e95780601f106104be576101008083540402835291602001916104e9565b820191906000526020600020905b8154815290600101906020018083116104cc57829003601f168201915b5050505050905090565b60006104fe82611008565b61053d576040517f08c379a00000000000000000000000000000000000000000000000000000000081526004016105349061232c565b60405180910390fd5b6004600083815260200190815260200160002060009054906101000a900473ffffffffffffffffffffffffffffffffffffffff169050919050565b600061058382610710565b90508073ffffffffffffffffffffffffffffffffffffffff168373ffffffffffffffffffffffffffffffffffffffff1614156105f4576040517f08c379a00000000000000000000000000000000000000000000000000000000081526004016105eb906123be565b60405180910390fd5b8073ffffffffffffffffffffffffffffffffffffffff16610613611074565b73ffffffffffffffffffffffffffffffffffffffff16148061064257506106418161063c611074565b610e12565b5b610681576040517f08c379a000000000000000000000000000000000000000000000000000000000815260040161067890612450565b60405180910390fd5b61068b838361107c565b505050565b6106a161069b611074565b82611135565b6106e0576040517f08c379a00000000000000000000000000000000000000000000000000000000081526004016106d7906124e2565b60405180910390fd5b6106eb838383611213565b505050565b61070b83838360405180602001604052806000815250610b3f565b505050565b6000806002600084815260200190815260200160002060009054906101000a900473ffffffffffffffffffffffffffffffffffffffff169050600073ffffffffffffffffffffffffffffffffffffffff168173ffffffffffffffffffffffffffffffffffffffff1614156107b9576040517f08c379a00000000000000000000000000000000000000000000000000000000081526004016107b090612574565b60405180910390fd5b80915050919050565b60008073ffffffffffffffffffffffffffffffffffffffff168273ffffffffffffffffffffffffffffffffffffffff161415610833576040517f08c379a000000000000000000000000000000000000000000000000000000000815260040161082a90612606565b60405180910390fd5b600360008373ffffffffffffffffffffffffffffffffffffffff1673ffffffffffffffffffffffffffffffffffffffff168152602001908152602001600020549050919050565b610882611074565b73ffffffffffffffffffffffffffffffffffffffff166108a0610902565b73ffffffffffffffffffffffffffffffffffffffff16146108f6576040517f08c379a00000000000000000000000000000000000000000000000000000000081526004016108ed90612672565b60405180910390fd5b610900600061146f565b565b6000600660009054906101000a900473ffffffffffffffffffffffffffffffffffffffff16905090565b60606001805461093b90612288565b80601f016020809104026020016040519081016040528092919081815260200182805461096790612288565b80156109b45780601f10610989576101008083540402835291602001916109b4565b820191906000526020600020905b81548152906001019060200180831161099757829003601f168201915b5050505050905090565b6109c6611074565b73ffffffffffffffffffffffffffffffffffffffff168273ffffffffffffffffffffffffffffffffffffffff161415610a34576040517f08c379a0000000000000000000000000000000000000000000000000000000008152600401610a2b906126de565b60405180910390fd5b8060056000610a41611074565b73ffffffffffffffffffffffffffffffffffffffff1673ffffffffffffffffffffffffffffffffffffffff16815260200190815260200160002060008473ffffffffffffffffffffffffffffffffffffffff1673ffffffffffffffffffffffffffffffffffffffff16815260200190815260200160002060006101000a81548160ff0219169083151502179055508173ffffffffffffffffffffffffffffffffffffffff16610aee611074565b73ffffffffffffffffffffffffffffffffffffffff167f17307eab39ab6107e8899845ad3d59bd9653f200f220920489ca2b5937696c3183604051610b339190611c3a565b60405180910390a35050565b610b50610b4a611074565b83611135565b610b8f576040517f08c379a0000000000000000000000000000000000000000000000000000000008152600401610b86906124e2565b60405180910390fd5b610b9b84848484611535565b50505050565b600081905060001515610bb383611008565b151514610bf5576040517f08c379a0000000000000000000000000000000000000000000000000000000008152600401610bec9061274a565b60405180910390fd5b610bff8482611591565b610c09818461175f565b50505050565b610c1881611008565b610c57576040517f08c379a0000000000000000000000000000000000000000000000000000000008152600401610c4e906127b6565b60405180910390fd5b610c62828483610690565b610c6c8382610578565b505050565b6060610c7c82611008565b610cbb576040517f08c379a0000000000000000000000000000000000000000000000000000000008152600401610cb290612848565b60405180910390fd5b6000600760008481526020019081526020016000208054610cdb90612288565b80601f0160208091040260200160405190810160405280929190818152602001828054610d0790612288565b8015610d545780601f10610d2957610100808354040283529160200191610d54565b820191906000526020600020905b815481529060010190602001808311610d3757829003601f168201915b5050505050905060006040518060400160405280601581526020017f68747470733a2f2f697066732e696f2f697066732f00000000000000000000008152509050600081511415610da9578192505050610e0d565b600082511115610dde578082604051602001610dc69291906128a4565b60405160208183030381529060405292505050610e0d565b80610de8856117d3565b604051602001610df99291906128a4565b604051602081830303815290604052925050505b919050565b6000600560008473ffffffffffffffffffffffffffffffffffffffff1673ffffffffffffffffffffffffffffffffffffffff16815260200190815260200160002060008373ffffffffffffffffffffffffffffffffffffffff1673ffffffffffffffffffffffffffffffffffffffff16815260200190815260200160002060009054906101000a900460ff16905092915050565b610eae611074565b73ffffffffffffffffffffffffffffffffffffffff16610ecc610902565b73ffffffffffffffffffffffffffffffffffffffff1614610f22576040517f08c379a0000000000000000000000000000000000000000000000000000000008152600401610f1990612672565b60405180910390fd5b600073ffffffffffffffffffffffffffffffffffffffff168173ffffffffffffffffffffffffffffffffffffffff161415610f92576040517f08c379a0000000000000000000000000000000000000000000000000000000008152600401610f899061293a565b60405180910390fd5b610f9b8161146f565b50565b60007f01ffc9a7000000000000000000000000000000000000000000000000000000007bffffffffffffffffffffffffffffffffffffffffffffffffffffffff1916827bffffffffffffffffffffffffffffffffffffffffffffffffffffffff1916149050919050565b60008073ffffffffffffffffffffffffffffffffffffffff166002600084815260200190815260200160002060009054906101000a900473ffffffffffffffffffffffffffffffffffffffff1673ffffffffffffffffffffffffffffffffffffffff1614159050919050565b600033905090565b816004600083815260200190815260200160002060006101000a81548173ffffffffffffffffffffffffffffffffffffffff021916908373ffffffffffffffffffffffffffffffffffffffff160217905550808273ffffffffffffffffffffffffffffffffffffffff166110ef83610710565b73ffffffffffffffffffffffffffffffffffffffff167f8c5be1e5ebec7d5bd14f71427d1e84f3dd0314c0f7b2291e5b200ac8c7c3b92560405160405180910390a45050565b600061114082611008565b61117f576040517f08c379a0000000000000000000000000000000000000000000000000000000008152600401611176906129cc565b60405180910390fd5b600061118a83610710565b90508073ffffffffffffffffffffffffffffffffffffffff168473ffffffffffffffffffffffffffffffffffffffff1614806111f957508373ffffffffffffffffffffffffffffffffffffffff166111e1846104f3565b73ffffffffffffffffffffffffffffffffffffffff16145b8061120a57506112098185610e12565b5b91505092915050565b8273ffffffffffffffffffffffffffffffffffffffff1661123382610710565b73ffffffffffffffffffffffffffffffffffffffff1614611289576040517f08c379a000000000000000000000000000000000000000000000000000000000815260040161128090612a5e565b60405180910390fd5b600073ffffffffffffffffffffffffffffffffffffffff168273ffffffffffffffffffffffffffffffffffffffff1614156112f9576040517f08c379a00000000000000000000000000000000000000000000000000000000081526004016112f090612af0565b60405180910390fd5b611304838383611934565b61130f60008261107c565b6001600360008573ffffffffffffffffffffffffffffffffffffffff1673ffffffffffffffffffffffffffffffffffffffff168152602001908152602001600020600082825461135f9190612b3f565b925050819055506001600360008473ffffffffffffffffffffffffffffffffffffffff1673ffffffffffffffffffffffffffffffffffffffff16815260200190815260200160002060008282546113b69190612b73565b92505081905550816002600083815260200190815260200160002060006101000a81548173ffffffffffffffffffffffffffffffffffffffff021916908373ffffffffffffffffffffffffffffffffffffffff160217905550808273ffffffffffffffffffffffffffffffffffffffff168473ffffffffffffffffffffffffffffffffffffffff167fddf252ad1be2c89b69c2b068fc378daa952ba7f163c4a11628f55a4df523b3ef60405160405180910390a4505050565b6000600660009054906101000a900473ffffffffffffffffffffffffffffffffffffffff16905081600660006101000a81548173ffffffffffffffffffffffffffffffffffffffff021916908373ffffffffffffffffffffffffffffffffffffffff1602179055508173ffffffffffffffffffffffffffffffffffffffff168173ffffffffffffffffffffffffffffffffffffffff167f8be0079c531659141344cd1fd0a4f28419497f9722a3daafe3b4186f6b6457e060405160405180910390a35050565b611540848484611213565b61154c84848484611939565b61158b576040517f08c379a000000000000000000000000000000000000000000000000000000000815260040161158290612c3b565b60405180910390fd5b50505050565b600073ffffffffffffffffffffffffffffffffffffffff168273ffffffffffffffffffffffffffffffffffffffff161415611601576040517f08c379a00000000000000000000000000000000000000000000000000000000081526004016115f890612ca7565b60405180910390fd5b61160a81611008565b1561164a576040517f08c379a000000000000000000000000000000000000000000000000000000000815260040161164190612d13565b60405180910390fd5b61165660008383611934565b6001600360008473ffffffffffffffffffffffffffffffffffffffff1673ffffffffffffffffffffffffffffffffffffffff16815260200190815260200160002060008282546116a69190612b73565b92505081905550816002600083815260200190815260200160002060006101000a81548173ffffffffffffffffffffffffffffffffffffffff021916908373ffffffffffffffffffffffffffffffffffffffff160217905550808273ffffffffffffffffffffffffffffffffffffffff16600073ffffffffffffffffffffffffffffffffffffffff167fddf252ad1be2c89b69c2b068fc378daa952ba7f163c4a11628f55a4df523b3ef60405160405180910390a45050565b61176882611008565b6117a7576040517f08c379a000000000000000000000000000000000000000000000000000000000815260040161179e90612da5565b60405180910390fd5b806007600084815260200190815260200160002090805190602001906117ce929190611ae3565b505050565b6060600082141561181b576040518060400160405280600181526020017f3000000000000000000000000000000000000000000000000000000000000000815250905061192f565b600082905060005b6000821461184d57808061183690612dc5565b915050600a826118469190612e3d565b9150611823565b60008167ffffffffffffffff81111561186957611868611f5b565b5b6040519080825280601f01601f19166020018201604052801561189b5781602001600182028036833780820191505090505b5090505b60008514611928576001826118b49190612b3f565b9150600a856118c39190612e6e565b60306118cf9190612b73565b60f81b8183815181106118e5576118e4612e9f565b5b60200101907effffffffffffffffffffffffffffffffffffffffffffffffffffffffffffff1916908160001a905350600a856119219190612e3d565b945061189f565b8093505050505b919050565b505050565b600061195a8473ffffffffffffffffffffffffffffffffffffffff16611ad0565b15611ac3578373ffffffffffffffffffffffffffffffffffffffff1663150b7a02611983611074565b8786866040518563ffffffff1660e01b81526004016119a59493929190612f23565b602060405180830381600087803b1580156119bf57600080fd5b505af19250505080156119f057506040513d601f19601f820116820180604052508101906119ed9190612f84565b60015b611a73573d8060008114611a20576040519150601f19603f3d011682016040523d82523d6000602084013e611a25565b606091505b50600081511415611a6b576040517f08c379a0000000000000000000000000000000000000000000000000000000008152600401611a6290612c3b565b60405180910390fd5b805181602001fd5b63150b7a0260e01b7bffffffffffffffffffffffffffffffffffffffffffffffffffffffff1916817bffffffffffffffffffffffffffffffffffffffffffffffffffffffff191614915050611ac8565b600190505b949350505050565b600080823b905060008111915050919050565b828054611aef90612288565b90600052602060002090601f016020900481019282611b115760008555611b58565b82601f10611b2a57805160ff1916838001178555611b58565b82800160010185558215611b58579182015b82811115611b57578251825591602001919060010190611b3c565b5b509050611b659190611b69565b5090565b5b80821115611b82576000816000905550600101611b6a565b5090565b6000604051905090565b600080fd5b600080fd5b60007fffffffff0000000000000000000000000000000000000000000000000000000082169050919050565b611bcf81611b9a565b8114611bda57600080fd5b50565b600081359050611bec81611bc6565b92915050565b600060208284031215611c0857611c07611b90565b5b6000611c1684828501611bdd565b91505092915050565b60008115159050919050565b611c3481611c1f565b82525050565b6000602082019050611c4f6000830184611c2b565b92915050565b600081519050919050565b600082825260208201905092915050565b60005b83811015611c8f578082015181840152602081019050611c74565b83811115611c9e576000848401525b50505050565b6000601f19601f8301169050919050565b6000611cc082611c55565b611cca8185611c60565b9350611cda818560208601611c71565b611ce381611ca4565b840191505092915050565b60006020820190508181036000830152611d088184611cb5565b905092915050565b6000819050919050565b611d2381611d10565b8114611d2e57600080fd5b50565b600081359050611d4081611d1a565b92915050565b600060208284031215611d5c57611d5b611b90565b5b6000611d6a84828501611d31565b91505092915050565b600073ffffffffffffffffffffffffffffffffffffffff82169050919050565b6000611d9e82611d73565b9050919050565b611dae81611d93565b82525050565b6000602082019050611dc96000830184611da5565b92915050565b611dd881611d93565b8114611de357600080fd5b50565b600081359050611df581611dcf565b92915050565b60008060408385031215611e1257611e11611b90565b5b6000611e2085828601611de6565b9250506020611e3185828601611d31565b9150509250929050565b600080600060608486031215611e5457611e53611b90565b5b6000611e6286828701611de6565b9350506020611e7386828701611de6565b9250506040611e8486828701611d31565b9150509250925092565b600060208284031215611ea457611ea3611b90565b5b6000611eb284828501611de6565b91505092915050565b611ec481611d10565b82525050565b6000602082019050611edf6000830184611ebb565b92915050565b611eee81611c1f565b8114611ef957600080fd5b50565b600081359050611f0b81611ee5565b92915050565b60008060408385031215611f2857611f27611b90565b5b6000611f3685828601611de6565b9250506020611f4785828601611efc565b9150509250929050565b600080fd5b600080fd5b7f4e487b7100000000000000000000000000000000000000000000000000000000600052604160045260246000fd5b611f9382611ca4565b810181811067ffffffffffffffff82111715611fb257611fb1611f5b565b5b80604052505050565b6000611fc5611b86565b9050611fd18282611f8a565b919050565b600067ffffffffffffffff821115611ff157611ff0611f5b565b5b611ffa82611ca4565b9050602081019050919050565b82818337600083830152505050565b600061202961202484611fd6565b611fbb565b90508281526020810184848401111561204557612044611f56565b5b612050848285612007565b509392505050565b600082601f83011261206d5761206c611f51565b5b813561207d848260208601612016565b91505092915050565b600080600080608085870312156120a05761209f611b90565b5b60006120ae87828801611de6565b94505060206120bf87828801611de6565b93505060406120d087828801611d31565b925050606085013567ffffffffffffffff8111156120f1576120f0611b95565b5b6120fd87828801612058565b91505092959194509250565b600067ffffffffffffffff82111561212457612123611f5b565b5b61212d82611ca4565b9050602081019050919050565b600061214d61214884612109565b611fbb565b90508281526020810184848401111561216957612168611f56565b5b612174848285612007565b509392505050565b600082601f83011261219157612190611f51565b5b81356121a184826020860161213a565b91505092915050565b6000806000606084860312156121c3576121c2611b90565b5b60006121d186828701611de6565b935050602084013567ffffffffffffffff8111156121f2576121f1611b95565b5b6121fe8682870161217c565b925050604061220f86828701611d31565b9150509250925092565b600080604083850312156122305761222f611b90565b5b600061223e85828601611de6565b925050602061224f85828601611de6565b9150509250929050565b7f4e487b7100000000000000000000000000000000000000000000000000000000600052602260045260246000fd5b600060028204905060018216806122a057607f821691505b602082108114156122b4576122b3612259565b5b50919050565b7f4552433732313a20617070726f76656420717565727920666f72206e6f6e657860008201527f697374656e7420746f6b656e0000000000000000000000000000000000000000602082015250565b6000612316602c83611c60565b9150612321826122ba565b604082019050919050565b6000602082019050818103600083015261234581612309565b9050919050565b7f4552433732313a20617070726f76616c20746f2063757272656e74206f776e6560008201527f7200000000000000000000000000000000000000000000000000000000000000602082015250565b60006123a8602183611c60565b91506123b38261234c565b604082019050919050565b600060208201905081810360008301526123d78161239b565b9050919050565b7f4552433732313a20617070726f76652063616c6c6572206973206e6f74206f7760008201527f6e6572206e6f7220617070726f76656420666f7220616c6c0000000000000000602082015250565b600061243a603883611c60565b9150612445826123de565b604082019050919050565b600060208201905081810360008301526124698161242d565b9050919050565b7f4552433732313a207472616e736665722063616c6c6572206973206e6f74206f60008201527f776e6572206e6f7220617070726f766564000000000000000000000000000000602082015250565b60006124cc603183611c60565b91506124d782612470565b604082019050919050565b600060208201905081810360008301526124fb816124bf565b9050919050565b7f4552433732313a206f776e657220717565727920666f72206e6f6e657869737460008201527f656e7420746f6b656e0000000000000000000000000000000000000000000000602082015250565b600061255e602983611c60565b915061256982612502565b604082019050919050565b6000602082019050818103600083015261258d81612551565b9050919050565b7f4552433732313a2062616c616e636520717565727920666f7220746865207a6560008201527f726f206164647265737300000000000000000000000000000000000000000000602082015250565b60006125f0602a83611c60565b91506125fb82612594565b604082019050919050565b6000602082019050818103600083015261261f816125e3565b9050919050565b7f4f776e61626c653a2063616c6c6572206973206e6f7420746865206f776e6572600082015250565b600061265c602083611c60565b915061266782612626565b602082019050919050565b6000602082019050818103600083015261268b8161264f565b9050919050565b7f4552433732313a20617070726f766520746f2063616c6c657200000000000000600082015250565b60006126c8601983611c60565b91506126d382612692565b602082019050919050565b600060208201905081810360008301526126f7816126bb565b9050919050565b7f546869732049642068617320616c7265616479206265656e2075736564000000600082015250565b6000612734601d83611c60565b915061273f826126fe565b602082019050919050565b6000602082019050818103600083015261276381612727565b9050919050565b7f5468697320746f6b656e20646f6573206e6f7420657869737400000000000000600082015250565b60006127a0601983611c60565b91506127ab8261276a565b602082019050919050565b600060208201905081810360008301526127cf81612793565b9050919050565b7f4552433732314d657461646174613a2055524920717565727920666f72206e6f60008201527f6e6578697374656e7420746f6b656e0000000000000000000000000000000000602082015250565b6000612832602f83611c60565b915061283d826127d6565b604082019050919050565b6000602082019050818103600083015261286181612825565b9050919050565b600081905092915050565b600061287e82611c55565b6128888185612868565b9350612898818560208601611c71565b80840191505092915050565b60006128b08285612873565b91506128bc8284612873565b91508190509392505050565b7f4f776e61626c653a206e6577206f776e657220697320746865207a65726f206160008201527f6464726573730000000000000000000000000000000000000000000000000000602082015250565b6000612924602683611c60565b915061292f826128c8565b604082019050919050565b6000602082019050818103600083015261295381612917565b9050919050565b7f4552433732313a206f70657261746f7220717565727920666f72206e6f6e657860008201527f697374656e7420746f6b656e0000000000000000000000000000000000000000602082015250565b60006129b6602c83611c60565b91506129c18261295a565b604082019050919050565b600060208201905081810360008301526129e5816129a9565b9050919050565b7f4552433732313a207472616e73666572206f6620746f6b656e2074686174206960008201527f73206e6f74206f776e0000000000000000000000000000000000000000000000602082015250565b6000612a48602983611c60565b9150612a53826129ec565b604082019050919050565b60006020820190508181036000830152612a7781612a3b565b9050919050565b7f4552433732313a207472616e7366657220746f20746865207a65726f2061646460008201527f7265737300000000000000000000000000000000000000000000000000000000602082015250565b6000612ada602483611c60565b9150612ae582612a7e565b604082019050919050565b60006020820190508181036000830152612b0981612acd565b9050919050565b7f4e487b7100000000000000000000000000000000000000000000000000000000600052601160045260246000fd5b6000612b4a82611d10565b9150612b5583611d10565b925082821015612b6857612b67612b10565b5b828203905092915050565b6000612b7e82611d10565b9150612b8983611d10565b9250827fffffffffffffffffffffffffffffffffffffffffffffffffffffffffffffffff03821115612bbe57612bbd612b10565b5b828201905092915050565b7f4552433732313a207472616e7366657220746f206e6f6e20455243373231526560008201527f63656976657220696d706c656d656e7465720000000000000000000000000000602082015250565b6000612c25603283611c60565b9150612c3082612bc9565b604082019050919050565b60006020820190508181036000830152612c5481612c18565b9050919050565b7f4552433732313a206d696e7420746f20746865207a65726f2061646472657373600082015250565b6000612c91602083611c60565b9150612c9c82612c5b565b602082019050919050565b60006020820190508181036000830152612cc081612c84565b9050919050565b7f4552433732313a20746f6b656e20616c7265616479206d696e74656400000000600082015250565b6000612cfd601c83611c60565b9150612d0882612cc7565b602082019050919050565b60006020820190508181036000830152612d2c81612cf0565b9050919050565b7f4552433732314d657461646174613a2055524920736574206f66206e6f6e657860008201527f697374656e7420746f6b656e0000000000000000000000000000000000000000602082015250565b6000612d8f602c83611c60565b9150612d9a82612d33565b604082019050919050565b60006020820190508181036000830152612dbe81612d82565b9050919050565b6000612dd082611d10565b91507fffffffffffffffffffffffffffffffffffffffffffffffffffffffffffffffff821415612e0357612e02612b10565b5b600182019050919050565b7f4e487b7100000000000000000000000000000000000000000000000000000000600052601260045260246000fd5b6000612e4882611d10565b9150612e5383611d10565b925082612e6357612e62612e0e565b5b828204905092915050565b6000612e7982611d10565b9150612e8483611d10565b925082612e9457612e93612e0e565b5b828206905092915050565b7f4e487b7100000000000000000000000000000000000000000000000000000000600052603260045260246000fd5b600081519050919050565b600082825260208201905092915050565b6000612ef582612ece565b612eff8185612ed9565b9350612f0f818560208601611c71565b612f1881611ca4565b840191505092915050565b6000608082019050612f386000830187611da5565b612f456020830186611da5565b612f526040830185611ebb565b8181036060830152612f648184612eea565b905095945050505050565b600081519050612f7e81611bc6565b92915050565b600060208284031215612f9a57612f99611b90565b5b6000612fa884828501612f6f565b9150509291505056fea2646970667358221220251525c5ba372224eca497ca2fa778a82b4055860d75ecee6f0e1e96571b006664736f6c63430008090033",
  "immutableReferences": {},
  "source": "// SPDX-License-Identifier: MIT\npragma solidity >=0.4.22 <0.9.0;\n\nimport \"@openzeppelin/contracts/token/ERC721/ERC721.sol\";\nimport '@openzeppelin/contracts/access/Ownable.sol';\n\n contract MusicOwnership is ERC721, Ownable {\n        \n    using Strings for uint256;\n\n    mapping (uint256 => string) private _tokenURIs;\n    string private _baseURIextended;\n\n    constructor(string memory _name, string memory _symbol)\n    ERC721(_name, _symbol)\n    {}\n  \n    function _setTokenURI(uint256 tokenId, string memory _tokenURI) internal virtual {\n    require(_exists(tokenId), \"ERC721Metadata: URI set of nonexistent token\");\n    \n    _tokenURIs[tokenId] = _tokenURI;\n    }\n        \n    function mint(address reciever, string memory tokenURI_,uint256 tokenId) external {\n        uint256 newNftTokenId = tokenId;\n        require((_exists(tokenId) == false),\"This Id has already been used\");\n        _mint(reciever, newNftTokenId);\n        _setTokenURI(newNftTokenId, tokenURI_);\n    }\n    \n    function tokenURI(uint256 tokenId) public view virtual override returns (string memory) {\n        require(_exists(tokenId), \"ERC721Metadata: URI query for nonexistent token\");\n\n        string memory _tokenURI = _tokenURIs[tokenId];\n            string memory base = \"https://ipfs.io/ipfs/\";\n            \n        if (bytes(base).length == 0) {\n            return _tokenURI;\n        }\n        if (bytes(_tokenURI).length > 0) {\n            return string(abi.encodePacked(base, _tokenURI));\n        }\n        return string(abi.encodePacked(base, tokenId.toString()));\n    }\n        \n    function transfer(address reciever, address sender, uint256 tokenId) external {\n        require(_exists(tokenId), \"This token does not exist\");\n        transferFrom(sender,reciever,tokenId);\n        approve(reciever,tokenId);\n    }\n}",
  "sourcePath": "/Users/rhysconnolly/SKEEEEET/contracts/MusicOwnership.sol",
  "compiler": {
    "name": "solc",
    "version": "0.8.9+commit.e5eed63a.Emscripten.clang"
  },
  "schemaVersion": "3.4.3",
  "updatedAt": "2021-11-14T14:49:45.057Z",
  "devdoc": {
    "kind": "dev",
    "methods": {
      "approve(address,uint256)": {
        "details": "See {IERC721-approve}."
      },
      "balanceOf(address)": {
        "details": "See {IERC721-balanceOf}."
      },
      "getApproved(uint256)": {
        "details": "See {IERC721-getApproved}."
      },
      "isApprovedForAll(address,address)": {
        "details": "See {IERC721-isApprovedForAll}."
      },
      "name()": {
        "details": "See {IERC721Metadata-name}."
      },
      "owner()": {
        "details": "Returns the address of the current owner."
      },
      "ownerOf(uint256)": {
        "details": "See {IERC721-ownerOf}."
      },
      "renounceOwnership()": {
        "details": "Leaves the contract without owner. It will not be possible to call `onlyOwner` functions anymore. Can only be called by the current owner. NOTE: Renouncing ownership will leave the contract without an owner, thereby removing any functionality that is only available to the owner."
      },
      "safeTransferFrom(address,address,uint256)": {
        "details": "See {IERC721-safeTransferFrom}."
      },
      "safeTransferFrom(address,address,uint256,bytes)": {
        "details": "See {IERC721-safeTransferFrom}."
      },
      "setApprovalForAll(address,bool)": {
        "details": "See {IERC721-setApprovalForAll}."
      },
      "supportsInterface(bytes4)": {
        "details": "See {IERC165-supportsInterface}."
      },
      "symbol()": {
        "details": "See {IERC721Metadata-symbol}."
      },
      "tokenURI(uint256)": {
        "details": "See {IERC721Metadata-tokenURI}."
      },
      "transferFrom(address,address,uint256)": {
        "details": "See {IERC721-transferFrom}."
      },
      "transferOwnership(address)": {
        "details": "Transfers ownership of the contract to a new account (`newOwner`). Can only be called by the current owner."
      }
    },
    "version": 1
  },
  "userdoc": {
    "kind": "user",
    "methods": {},
    "version": 1
  }
}